:020000040800F2
:100000000050002025720008A10F0008AD0F000865
:10001000B30F0008B90F0008BF0F00080000000070
:10002000000000000000000000000000C50F0008F4
:10003000D10F000800000000DD0F0008E90F0008E4
:100040006D7200086D7200086D7200086D72000814
:100050006D7200086D7200086D7200086D72000804
:100060006D7200086D7200086D7200086D720008F4
:100070006D720008F50F00086D7200086D720008BF
:10008000091000086D7200086D7200086D7200089A
:100090001D1000086D7200086D7200086D72000876
:1000A0006D7200086D7200086D7200086D720008B4
:1000B0006D7200086D7200086D7200086D720008A4
:1000C0006D7200086D7200086D7200086D72000894
:1000D0006D7200086D7200083110000845100008AC
:1000E0006D7200086D7200086D720008000000005B
:1000F0000000000000000000000000000000000000
:0C01000000000000000000005FF808F1A3
:10010C0010B5054C237833B9044B13B10448AFF345
:10011C0000800123237010BD480200200000000065
:10012C003C7B000808B5034B1BB103490348AFF3F4
:10013C00008008BD000000004C0200203C7B000841
:10014C0080B485B000AF78607B681F4A934219D1A8
:10015C001E4B1B78002B32D10023FB600BE01C4A9A
:10016C00FB68134419781B4AFB6813440A461A703F
:10017C00FB680133FB60FB68FF2BF0DD134B0122A6
:10018C001A701CE07B68144A934218D1134B1B78ED
:10019C00002B14D10023BB600BE0114ABB68134445
:1001AC001978104ABB6813440A461A70BB680133AD
:1001BC00BB60BB68FF2BF0DD084B01221A7000BF3F
:1001CC001437BD4680BC70476C0C00206C020020BC
:1001DC00E40500202C0900202807002071020020D3
:1001EC006C0B0020A004002080B483B000AF0E4B39
:1001FC001B881A460D4B9B5CFB710B4B1B88013308
:10020C009AB2094B1A80084B1B88B3F5807F05D135
:10021C00054B00221A80064B00221A70FB791846F7
:10022C000C37BD4680BC7047640200202C090020AE
:10023C006C02002080B483B000AF0E4B1B881A46B2
:10024C000D4B9B5CFB710B4B1B8801339AB2094B1A
:10025C001A80084B1B88B3F5807F05D1054B002213
:10026C001A80064B00221A70FB7918460C37BD46D3
:10027C0080BC704766020020A004002071020020A0
:10028C0080B590B002AF00F015FF00F0AFFA00F0AF
:10029C0033FC00F00BFC06F00DFB00F0DDFB00F076
:1002AC00B1FB00F055FB00F0FBFA4FF4807296495D
:1002BC00964803F053FC4FF480729549954803F02F
:1002CC004DFC0421944803F0A1F80421934803F059
:1002DC009DF8914B1B683433043300221A608F4B0A
:1002EC001B683433043300221A6000BF8C4B1B781C
:1002FC00002B03D18B4B1B78002BF7D0884B1B7832
:10030C00012B40F03881FFF76FFF0346AA2B40F01A
:10031C003281FFF769FF0346AA2B40F02C81FFF7CF
:10032C0063FF03463B710023FB70002387F83730D3
:10033C003B79A92B00F2318200233B6314E0FFF7D9
:10034C0053FF03461946784A3B6B13440A461A700E
:10035C00754A3B6B13441A7897F83730134487F877
:10036C0037303B6B01333B633A793B6B9A42E6DCAB
:10037C00FFF73AFF0346FB7097F83730DB4387F8FB
:10038C003730FA7897F837309A4240F0F480674B60
:10039C00C8221A70664B00221A70664B00221A7023
:1003AC00654B00221A700023FB6243E05E4AFB6A35
:1003BC0013441B78042B1ED0042B04DC022B09D015
:1003CC00032B14D033E0802B29D0832B2BD0052B7F
:1003DC001BD02CE0FB6A0133FB62534AFB6A1344CB
:1003EC001A78524B1A70544B01221A701FE0FB6A98
:1003FC000133FB621BE0FB6A0133FB624A4AFB6A76
:10040C0013441A784A4B1A7011E0FB6A0133FB62F1
:10041C00454AFB6A13441A78464B1A7007E0FB6A8C
:10042C001733FB6203E0FB6A1933FB6200BFFB6A04
:10043C000133FB623A79FB6A9A42B7DC3E4B1B787C
:10044C00012B40F09880394B1B781A46384B1B789F
:10045C001946384B1B7800930B463849384806F040
:10046C002DFF0346DAB2374B1A70364B1B789BB212
:10047C001946334806F0C8FA2C4B1B78002B39D19F
:10048C002B4B1B78304AA2FB0323DB08BB70BB78D9
:10049C000A2B28BF0A23BB701F4B1B683433043351
:1004AC00BA782A498A5C1A600023BB620BE0284A9E
:1004BC00BB6A52F823302749BA6A31F812201A6104
:1004CC00BB6A0133BB62BA78BB6A9A42EFDCBB7879
:1004DC007B620BE01E4A7B6A52F823301D497A6A14
:1004EC0031F812205A617B6A01337B627B6A092BDB
:1004FC00F0DD40E0084B1B683433043300221A60F3
:10050C0000233B6234E000BFE40500206C0C0020AB
:10051C006C0B0020280700202C0B00206808002002
:10052C006C020020710200202C0A002068020020BE
:10053C00690200206A0200206B020020547B000834
:10054C00AC080020A8080020CDCCCCCC7800002032
:10055C003C00002064000020944A3B6A52F823308F
:10056C0093493A6A31F812205A613B6A01333B6273
:10057C003B6A092BF0DD8F4B1B78012B7FF4B5AE5A
:10058C00FFF758FE0346AA2B7FF4AFAEFFF752FEDF
:10059C000346AA2B7FF4A9AEFFF74CFE0346FB7172
:1005AC000023BB710023FB77FB79A92B00F2F780AA
:1005BC000023BB6112E0FFF73DFE034619467E4A5D
:1005CC00BB6913440A461A707B4ABB6913441A78F8
:1005DC00FB7F1344FB77BB690133BB61FA79BB69C1
:1005EC009A42E8DCFFF726FE0346BB71FB7FDB4338
:1005FC00FB77BA79FB7F9A427FF477AE6F4BC822B8
:10060C001A706F4B00221A706E4B00221A706E4BD0
:10061C0000221A7000237B6143E0674A7B69134414
:10062C001B78042B1ED0042B04DC022B09D0032BCB
:10063C0014D033E0802B29D0832B2BD0052B1BD04F
:10064C002CE07B6901337B615B4A7B6913441A782C
:10065C005A4B1A705C4B01221A701FE07B690133F4
:10066C007B611BE07B6901337B61534A7B691344DB
:10067C001A78534B1A7011E07B6901337B614E4A37
:10068C007B6913441A784F4B1A7007E07B69173358
:10069C007B6103E07B6919337B6100BF7B690133AC
:1006AC007B61FA797B699A42B7DC474B1B78012B4B
:1006BC007FF41BAE414B1B781A46414B1B781946F5
:1006CC00404B1B7800930B464049414806F0F6FD21
:1006DC000346DAB23F4B1A703E4B1B789BB219465D
:1006EC003B4806F091F9354B1B78002B39D1344B34
:1006FC001B78394AA2FB0323DB087B717B790A2B1D
:10070C0028BF0A237B71354B1B68343304337A7949
:10071C0033498A5C1A6000233B610BE0314A3B6928
:10072C0052F8233030493A6931F812201A613B698A
:10073C0001333B617A793B699A42EFDC7B79FB6050
:10074C000BE0284AFB6852F823302749FA6831F845
:10075C0012205A61FB680133FB60FB68092BF0DD4A
:10076C0017E01E4B1B683433043300221A6000233D
:10077C00BB600BE01B4ABB6852F823301A49BA68BD
:10078C0031F812205A61BB680133BB60BB68092B7E
:10079C00F0DD0D4B00221A70A7E500BF00E000BF92
:1007AC00002318463837BD4680BD00BF3C000020F2
:1007BC006400002071020020680700206D020020F8
:1007CC006E0200206F02002070020020647B000883
:1007DC00AC080020A8080020CDCCCCCC68080020A8
:1007EC0078000020000000202800002080B594B084
:1007FC0000AF07F1280328220021184606F056FD09
:10080C0007F1140300221A605A609A60DA601A61C8
:10081C003B1D00221A605A609A60DA600123BB62A9
:10082C004FF48033FB6200233B630123BB63022341
:10083C007B644FF48033BB644FF4E013FB6407F12B
:10084C002803184602F0DEF80346002B01D000F016
:10085C00D9F90F237B610223BB610023FB614FF4A9
:10086C0080633B6200237B6207F11403022118466C
:10087C0002F02CFB0346002B01D000F0C3F910232F
:10088C007B6000233B613B1D184602F0DDFC0346F8
:10089C00002B01D000F0B6F900BF5037BD4680BD2B
:1008AC0080B58AB000AF07F1200300221A605A60AD
:1008BC003B1D00221A605A609A60DA601A615A6114
:1008CC009A61224B4FF080421A60204B40F2191271
:1008DC005A601E4B00229A601C4BFF22DA601B4BA5
:1008EC0000221A61194B00229A61184802F062FD2D
:1008FC000346002B01D000F085F900233B62002356
:10090C007B6207F120031946104803F095F8034663
:10091C00002B01D000F076F960237B60FF23BB60D5
:10092C000023FB6000237B613B1D04221946074812
:10093C0002F094FD0346002B01D000F063F903484C
:10094C0000F0C8F900BF2837BD4680BD2C0B002035
:10095C0080B58AB000AF07F1200300221A605A60FC
:10096C003B1D00221A605A609A60DA601A615A6163
:10097C009A61224B224A1A60204B40F219125A609B
:10098C001E4B00229A601D4BFF22DA601B4B00228B
:10099C001A611A4B00229A61184802F00BFD0346AB
:1009AC00002B01D000F02EF900233B6200237B6268
:1009BC0007F120031946114803F03EF80346002BBB
:1009CC0001D000F01FF960237B60FF23BB60002384
:1009DC00FB6000237B613B1D04221946074802F093
:1009EC003DFD0346002B01D000F00CF9034800F04C
:1009FC0071F900BF2837BD4680BD00BF68080020D4
:100A0C000004004080B500AF114B124A1A60104B25
:100A1C004FF461425A600E4B00229A600C4B00223C
:100A2C00DA600B4B00221A61094B04225A61084B05
:100A3C0000229A61064B0022DA61054803F040F867
:100A4C000346002B01D000F0DDF800BF80BD00BFD5
:100A5C006C0C00200044004080B500AF114B124AD2
:100A6C001A60104B4FF461425A600E4B00229A6090
:100A7C000C4B0022DA600B4B00221A61094B04224A
:100A8C005A61084B00229A61064B0022DA61054834
:100A9C0003F016F80346002B01D000F0B3F800BFAA
:100AAC0080BD00BF280700200048004080B582B000
:100ABC0000AF104A0F4B5B6943F0010353610D4BC0
:100ACC005B6903F001037B607B68002200210D2031
:100ADC0000F023FC0D2000F03CFC00220021102033
:100AEC0000F01BFC102000F034FC00BF0837BD46A2
:100AFC0080BD00BF0010024080B588B000AF07F188
:100B0C00100300221A605A609A60DA60394A394B35
:100B1C009B6943F010039361364B9B6903F0100300
:100B2C00FB60FB68334A334B9B6943F020039361B2
:100B3C00304B9B6903F02003BB60BB682D4A2D4BE7
:100B4C009B6943F0040393612A4B9B6903F00403F4
:100B5C007B607B68274A274B9B6943F008039361B2
:100B6C00244B9B6903F008033B603B6800224FF465
:100B7C006041214800F0DCFF002248F2F3711F486D
:100B8C0000F0D6FF00224FF201311D4800F0D0FFDB
:100B9C004FF460433B6101237B610023BB61022363
:100BAC00FB6107F110031946134800F063FE48F28D
:100BBC00F3733B6101237B610023BB610223FB6167
:100BCC0007F1100319460D4800F054FE4FF20133A3
:100BDC003B6101237B610023BB610223FB6107F1B5
:100BEC0010031946064800F045FE00BF2037BD46ED
:100BFC0080BD00BF00100240001001400008014001
:100C0C00000C014080B400AF00BFBD4680BC7047F3
:100C1C0080B485B000AF154A144B9B6943F00103B7
:100C2C009361124B9B6903F00103BB60BB680F4AD5
:100C3C000E4BDB6943F08053D3610C4BDB6903F043
:100C4C0080537B607B680A4B5B68FB60FB6823F01E
:100C5C00E063FB60FB6843F00073FB60044AFB68D5
:100C6C00536000BF1437BD4680BC70470010024073
:100C7C000000014080B485B000AF78607B681B68D1
:100C8C00B3F1804F0CD1114A104BDB6943F00103D7
:100C9C00D3610E4BDB6903F00103FB60FB6810E0D2
:100CAC007B681B680A4A93420BD1084A074BDB69E5
:100CBC0043F00203D361054BDB6903F00203BB6015
:100CCC00BB6800BF1437BD4680BC704700100240A3
:100CDC000004004080B58AB000AF786007F11003C3
:100CEC0000221A605A609A60DA607B681B68B3F164
:100CFC00804F2AD12E4A2E4B9B6943F008039361F7
:100D0C002B4B9B6903F00803FB60FB6808233B61DA
:100D1C0002237B610223FB6107F11003194625486E
:100D2C0000F0A8FD244B5B687B627B6A23F4407364
:100D3C007B627B6A43F0E0637B627B6A43F4807383
:100D4C007B621D4A7B6A53602EE07B681B681B4AE2
:100D5C00934229D1164A164B9B6943F008039361C1
:100D6C00134B9B6903F00803BB60BB6820233B61FA
:100D7C0002237B610223FB6107F1100319460D4826
:100D8C0000F078FD0C4B5B683B623B6A23F44063DC
:100D9C003B623B6A43F0E0633B623B6A43F40063B3
:100DAC003B62054A3B6A536000BF2837BD4680BD95
:100DBC0000100240000C0140000001400004004003
:100DCC0080B58AB000AF786007F1180300221A6072
:100DDC005A609A60DA607B681B68654A93425ED100
:100DEC00644A644BDB6943F40033D361614BDB69C8
:100DFC0003F400337B617B695E4A5E4B9B6943F075
:100E0C00040393615B4B9B6903F004033B613B69F7
:100E1C000423BB610223FB6103237B6207F11803EC
:100E2C001946554800F026FD0823BB610023FB61E1
:100E3C0000233B6207F1180319464F4800F01AFDD6
:100E4C004E4B4F4A1A604D4B00225A604B4B0022BE
:100E5C009A604A4B8022DA60484B00221A61474B59
:100E6C0000225A61454B20229A61444B0022DA61E0
:100E7C00424800F089FA0346002B01D0FFF7C2FE6E
:100E8C007B683E4A5A633D4A7B68536200220021CC
:100E9C00262000F042FA262000F05BFA64E07B6822
:100EAC001B68384A93425FD1324A324BDB6943F4B8
:100EBC008023D3612F4BDB6903F48023FB60FB6839
:100ECC002C4A2C4B9B6943F008039361294B9B697B
:100EDC0003F00803BB60BB684FF48063BB61022363
:100EEC00FB6103237B6207F118031946264800F0C7
:100EFC00C1FC4FF40063BB610023FB6100233B6228
:100F0C0007F118031946204800F0B4FC1F4B204A87
:100F1C001A601E4B00225A601C4B00229A601B4B1D
:100F2C008022DA60194B00221A61184B00225A6198
:100F3C00164B20229A61154B0022DA61134800F0FF
:100F4C0023FA0346002B01D0FFF75CFE7B680F4AA7
:100F5C005A630E4A7B68536200220021272000F05E
:100F6C00DCF9272000F0F5F900BF2837BD4680BD1D
:100F7C00004400400010024000080140A005002081
:100F8C006C00024000480040000C0140E4060020C8
:100F9C003000024080B400AF00BFBD4680BC70473B
:100FAC0080B400AFFEE780B400AFFEE780B400AFC2
:100FBC00FEE780B400AFFEE780B400AF00BFBD46D3
:100FCC0080BC704780B400AF00BFBD4680BC70478A
:100FDC0080B400AF00BFBD4680BC704780B500AF89
:100FEC0000F0AEF800BF80BD80B500AF024800F045
:100FFC0001FB00BF80BD00BFE406002080B500AF40
:10100C00024800F0F7FA00BF80BD00BFA005002029
:10101C0080B500AF024800F0A3FE00BF80BD00BF4A
:10102C00A418002080B500AF024802F017FE00BFE4
:10103C0080BD00BF6C0C002080B500AF024802F0F0
:10104C000DFE00BF80BD00BF2807002080B400AF9C
:10105C00154A154B1B6843F0010313601249124BE0
:10106C005A68124B13404B600F4A0F4B1B6823F00E
:10107C00847323F4803313600B4A0B4B1B6823F4EB
:10108C0080231360084A084B5B6823F4FE0353600B
:10109C00054B4FF41F029A60054B4FF000629A60AB
:1010AC0000BFBD4680BC7047001002400000FFF836
:1010BC0000ED00E080B500AF084A084B1B6843F018
:1010CC0010031360032000F01DF9002000F008F855
:1010DC00FFF79EFD0023184680BD00BF0020024094
:1010EC0080B582B000AF7860124B1A68124B1B7837
:1010FC0019464FF47A73B3FBF1F3B2FBF3F31846D2
:10110C0000F035F90346002B01D001230EE07B687B
:10111C000F2B0AD8002279684FF0FF3000F0FDF851
:10112C00064A7B681360002300E001231846083749
:10113C00BD4680BD840000208C000020880000206B
:10114C0080B400AF054B1B781A46054B1B68134443
:10115C00034A136000BFBD4680BC70478C00002062
:10116C00AC0C002080B400AF024B1B681846BD4687
:10117C0080BC7047AC0C002080B485B000AF7860A8
:10118C007B6803F00703FB600C4BDB68BB60BA6841
:10119C004FF6FF031340BB60FB681A02BB68134396
:1011AC0043F0BF6343F40033BB60044ABB68D360B5
:1011BC0000BF1437BD4680BC704700BF00ED00E097
:1011CC0080B400AF044BDB681B0A03F0070318461E
:1011DC00BD4680BC704700BF00ED00E080B483B01A
:1011EC0000AF0346FB71084997F907305B09FA79A0
:1011FC0002F01F02012000FA02F241F8232000BF86
:10120C000C37BD4680BC704700E100E080B483B071
:10121C0000AF03463960FB7197F90730002B0BDAEE
:10122C000D49FB7903F00F03043B3A68D2B212016B
:10123C00D2B20B441A7609E0084997F907303A689C
:10124C00D2B21201D2B20B4483F8002300BF0C3788
:10125C00BD4680BC704700BF00ED00E000E100E03F
:10126C0080B489B000AFF860B9607A60FB6803F0B5
:10127C000703FB61FB69C3F10703042B28BF04239D
:10128C00BB61FB690433062B02D9FB69033B00E00D
:10129C0000237B610122BB6902FA03F35A1EBB686F
:1012AC001A407B699A4001217B6901FA03F3591EAC
:1012BC007B680B40134318462437BD4680BC7047EF
:1012CC0080B582B000AF78607B68013BB3F1807F62
:1012DC0001D301230FE00A4A7B68013B53600F21C5
:1012EC004FF0FF30FFF792FF054B00229A60044B42
:1012FC0007221A60002318460837BD4680BD00BF80
:10130C0010E000E080B582B000AF78607868FFF73D
:10131C0033FF00BF0837BD4680BD80B586B000AF37
:10132C000346B9607A60FB7300237B61FFF748FFCB
:10133C0078617A68B9687869FFF792FF024697F985
:10134C000F3011461846FFF761FF00BF1837BD4636
:10135C0080BD80B582B000AF0346FB7197F90730B2
:10136C001846FFF73BFF00BF0837BD4680BD80B570
:10137C0082B000AF78607868FFF7A2FF034618468A
:10138C000837BD4680BD000080B485B000AF7860E2
:10139C000023FB607B68002B01D1012343E07B68B9
:1013AC001B681A46224B1344224AA2FB03231B0937
:1013BC009A007B681A647B681F4ADA637B68022296
:1013CC0083F821207B681B681B68FB60FB6823F497
:1013DC007F5323F03003FB607B685A687B689B6803
:1013EC001A437B68DB681A437B681B691A437B686A
:1013FC005B691A437B689B691A437B68DB691343FF
:10140C00FA681343FB607B681B68FA681A607B6898
:10141C0000229A637B68012283F821207B680022DA
:10142C0083F82020002318461437BD4680BC704733
:10143C00F8FFFDBFCDCCCCCC0000024080B586B00F
:10144C0000AFF860B9607A603B600023FB75FB6805
:10145C0093F82030012B01D102234AE0FB680122D2
:10146C0083F82020FB6893F82130012B3AD1FB68DC
:10147C00022283F82120FB6800229A63FB681B6818
:10148C00FA681268126822F001021A603B687A68E6
:10149C00B968F86800F0C0F9FB68DB6A002B08D06B
:1014AC00FB681B68FA681268126842F00E021A6038
:1014BC000FE0FB681B68FA681268126822F00402DD
:1014CC001A60FB681B68FA681268126842F00A021C
:1014DC001A60FB681B68FA681268126842F0010215
:1014EC001A6005E0FB68002283F820200223FB75BC
:1014FC00FB7D18461837BD4680BD000080B584B012
:10150C0000AF78600023FB737B6893F82130022BCB
:10151C0005D07B6804229A630123FB7357E07B6838
:10152C001B687A681268126822F00E021A607B68D7
:10153C001B687A681268126822F001021A60264A47
:10154C007B681B681946254B99422ED07B681B681B
:10155C001946234B994226D07B681B681946214BB0
:10156C0099421DD07B681B6819461F4B994214D0B9
:10157C007B681B6819461D4B99420BD07B681B6816
:10158C0019461B4B994202D14FF480130EE04FF0D9
:10159C0080730BE04FF4803308E04FF4805305E088
:1015AC004FF4807302E0102300E0012353607B684A
:1015BC00012283F821207B68002283F820207B689D
:1015CC005B6B002B03D07B685B6B78689847FB7B6D
:1015DC0018461037BD4680BD00000240080002408E
:1015EC001C000240300002404400024058000240FF
:1015FC006C00024080B584B000AF78607B68DB6B18
:10160C001B68FB607B681B681B68BB607B681B6C82
:10161C0004229A40FB681340002B55D0BB6803F0A2
:10162C000403002B50D07B681B681B6803F020035D
:10163C00002B07D17B681B687A681268126822F04D
:10164C0004021A606D4A7B681B6819466C4B994200
:10165C002ED07B681B6819466A4B994226D07B6852
:10166C001B681946684B99421DD07B681B6819464C
:10167C00664B994214D07B681B681946644B99429F
:10168C000BD07B681B681946624B994202D14FF410
:10169C0080030EE04FF080630BE04FF4802308E0F2
:1016AC004FF4804305E04FF4806302E0402300E0F8
:1016BC00042353607B68DB6A002B00F09A807B6804
:1016CC00DB6A7868984794E07B681B6C02229A402E
:1016DC00FB681340002B5CD0BB6803F00203002BAB
:1016EC0057D07B681B681B6803F02003002B0BD1C1
:1016FC007B681B687A681268126822F00A021A600A
:10170C007B68012283F821203C4A7B681B681946C0
:10171C003B4B99422ED07B681B681946394B99423A
:10172C0026D07B681B681946374B99421DD07B68C5
:10173C001B681946354B994214D07B681B681946B7
:10174C00334B99420BD07B681B681946314B99423D
:10175C0002D14FF400130EE04FF000730BE04FF486
:10176C00003308E04FF4005305E04FF4007302E03F
:10177C00202300E0022353607B68002283F82020A2
:10178C007B689B6A002B34D07B689B6A786898478F
:10179C002FE07B681B6C08229A40FB681340002BDF
:1017AC0028D0BB6803F00803002B23D07B681B6890
:1017BC007A681268126822F00E021A607B68DB6B82
:1017CC007A68126C012101FA02F25A607B680122DC
:1017DC009A637B68012283F821207B68002283F8BE
:1017EC0020207B681B6B002B04D07B681B6B7868FC
:1017FC00984700BF00BF1037BD4680BD00000240B7
:10180C00080002401C00024030000240440002402C
:10181C00580002406C00024080B485B000AFF86004
:10182C00B9607A603B60FB68DB6BFA68126C012173
:10183C0001FA02F25A60FB681B683A685A60FB684E
:10184C005B68102B08D1FB681B687A689A60FB6890
:10185C001B68BA68DA6007E0FB681B68BA689A60B4
:10186C00FB681B687A68DA6000BF1437BD4680BC21
:10187C007047000080B48BB000AF786039600023F3
:10188C00FB610023BB6100237B6100233B620023CF
:10189C003B6100237B6227E101227B6A02FA03F39E
:1018AC00FB613B681A68FB691340BB61BA69FB6951
:1018BC009A4240F016813B685B68122B34D0122B95
:1018CC000DD8022B2BD0022B04D8002B31D0012B9E
:1018DC001CD048E0032B43D0112B1BD043E0874A8C
:1018EC00934226D0854A934206D8854A934220D00B
:1018FC00844A93421DD036E0834A934219D0834ADE
:10190C00934216D0824A934213D02CE03B68DB689A
:10191C003B6228E03B68DB6804333B6223E03B68B6
:10192C00DB6808333B621EE03B68DB680C333B62D0
:10193C0019E03B689B68002B02D104233B6212E048
:10194C003B689B68012B05D108233B627B68FA69D5
:10195C001A6108E008233B627B68FA695A6102E06D
:10196C0000233B6200BFBB69FF2B01D87B6801E001
:10197C007B680433FB60BB69FF2B02D87B6A9B003E
:10198C0002E07B6A083B9B003B61FB681A680F21F5
:10199C003B6901FA03F3DB431A40396A3B6901FAEC
:1019AC0003F31A43FB681A603B685B6803F08053CF
:1019BC00002B00F09680574A564B9B6943F001036D
:1019CC009361544B9B6903F00103BB60BB68524AA3
:1019DC007B6A9B08023352F823307B617B6A03F0ED
:1019EC0003039B000F2202FA03F3DB437A691340D3
:1019FC007B617B68494A934213D07B68484A934287
:101A0C000DD07B68474A934207D07B68464A934285
:101A1C0001D1032306E0042304E0022302E00123A6
:101A2C0000E000237A6A02F00302920093407A6984
:101A3C0013437B6138497B6A9B0802337A6941F80E
:101A4C0023203B685B6803F48033002B06D03749B6
:101A5C00364B1A68BB6913430B6006E03349334BB2
:101A6C001A68BB69DB4313400B603B685B6803F48B
:101A7C000033002B06D02D492C4B5A68BB691343FD
:101A8C004B6006E02949294B5A68BB69DB4313407C
:101A9C004B603B685B6803F48013002B06D0234932
:101AAC00224B9A68BB6913438B6006E01F491F4B9E
:101ABC009A68BB69DB4313408B603B685B6803F43B
:101ACC000013002B06D01949184BDA68BB69134375
:101ADC00CB6006E01549154BDA68BB69DB43134054
:101AEC00CB607B6A01337B627B6A0F2B7FF6D4AEB3
:101AFC0000BF2C37BD4680BC704700BF00002110D2
:101B0C000000111000001210000031100000321003
:101B1C0000002210001002400000014000080140AB
:101B2C00000C014000100140001401400004014071
:101B3C0080B483B000AF78600B467B8013467B701B
:101B4C007B78002B03D07A887B681A6103E07B8852
:101B5C001A047B681A6100BF0C37BD4680BC704705
:101B6C00F0B58BB006AF78600023FB607B68002B70
:101B7C0001D10123CAE07B6893F82934DBB2002B36
:101B8C0006D17B68002283F82824786805F012F8C7
:101B9C007B68032283F829247B681B68184602F0B3
:101BAC0075FC7B681B683B607E686D4606F1100413
:101BBC000FCC0FC523682B60331D0ECB386802F099
:101BCC003BFC7B681B680021184602F07BFC002361
:101BDC00FB6037E07A68FB685B0113442933012210
:101BEC001A70FB68D9B27A68FB685B01134428331E
:101BFC000A461A70FB6899B27A68FB685B01134459
:101C0C0034330A461A807A68FB685B0113442B3321
:101C1C0000221A707A68FB685B0113443833002287
:101C2C001A607A68FB685B0113443C3300221A602B
:101C3C007A68FB6802335B01134400221A60FB686C
:101C4C000133FB60FB680E2BC4D90023FB603CE026
:101C5C007A68FB685B01134403F2292300221A7093
:101C6C00FB68D9B27A68FB685B01134403F50A730D
:101C7C000A461A70FB6899B27A68FB685B011344D8
:101C8C0034330A461A807A68FB685B01134403F20A
:101C9C002B2300221A707A68FB685B01134403F54E
:101CAC000E7300221A607A68FB685B01134403F51B
:101CBC000F7300221A607A68FB6812335B011344BD
:101CCC0000221A60FB680133FB60FB680E2BBFD946
:101CDC007B681B683B607E686D4606F110040FCC78
:101CEC000FC523682B60331D0ECB386802F0F6FB52
:101CFC007B68002283F824207B68012283F8292446
:101D0C007B681B68184603F0E0FB00231846143769
:101D1C00BD46F0BD80B582B000AF78607B6893F8AB
:101D2C002834012B01D1022316E07B68012283F8B1
:101D3C0028240121786805F064FA7B681B68184632
:101D4C0003F0B9FB7B681B68184602F085FB7B68C7
:101D5C00002283F82824002318460837BD4680BD8E
:101D6C0080B582B000AF78607B681B68184603F0C2
:101D7C00B6FB034603F40043B3F5004F02D1786879
:101D8C0000F0D8FA7B681B68184603F0A8FB0346E2
:101D9C0003F48063B3F5806F12D17B681B687A689B
:101DAC001268B2F8442092B222F4806292B2A3F884
:101DBC004420786804F073FF0021786800F0D2F8B2
:101DCC007B681B68184603F08AFB034603F48043C8
:101DDC00B3F5804F0BD17B681B687A681268B2F838
:101DEC00442092B222F4804292B2A3F844207B6841
:101DFC001B68184603F073FB034603F40053B3F55A
:101E0C00005F0BD17B681B687A681268B2F84420BB
:101E1C0092B222F4005292B2A3F844207B681B6861
:101E2C00184603F05CFB034603F48053B3F5805F64
:101E3C0026D17B681B687A681268B2F8402092B28F
:101E4C0022F0040292B2A3F840207B681B687A68E7
:101E5C001268B2F8402092B222F0080292B2A3F8B3
:101E6C004020786804F058FF7B681B687A68126819
:101E7C00B2F8442092B222F4805292B2A3F84420D9
:101E8C007B681B68184603F02AFB034603F40063C7
:101E9C00B3F5006F31D17B681B687A681268B2F8B1
:101EAC00402092B242F0080292B2A3F840207B6824
:101EBC001B687A681268B2F8442092B222F400626D
:101ECC0092B2A3F844207B681B687A681268B2F857
:101EDC00402092B242F0040292B2A3F840207B68F8
:101EEC001B68184603F0FBFA034603F48053B3F562
:101EFC00805F02D0786804F0F5FE7B681B6818469A
:101F0C0003F0EDFA034603F40073B3F5007F0ED132
:101F1C007B681B687A681268B2F8442092B222F48B
:101F2C00007292B2A3F84420786804F0AAFE7B6891
:101F3C001B68184603F0D3FA034603F48073B3F519
:101F4C00807F0BD17B681B687A681268B2F84420DA
:101F5C0092B222F4807292B2A3F8442000BF0837E8
:101F6C00BD4680BD80B582B000AF78600B46FB707B
:101F7C007B6893F82834012B01D1022313E07B6892
:101F8C00012283F828247B68FA7883F824207B6864
:101F9C001B68FA781146184603F07AFA7B6800221F
:101FAC0083F82824002318460837BD4680BD80B529
:101FBC0084B000AF7860084611461A460346FB70A1
:101FCC000B463B801346BB700023FB720023FB6067
:101FDC0097F90330002B08DAFB7803F07F035B01E1
:101FEC0028337A681344FB6008E0FB7803F07F0326
:101FFC005B0103F50A737A681344FB60FB7803F00A
:10200C007F03DAB2FB681A7097F90330DBB2DB0995
:10201C00DBB21A46FB685A703A88FB681A61FB6897
:10202C00BA78DA707B6893F82834012B01D102233B
:10203C000EE07B68012283F828247B681B68F96812
:10204C00184602F06FFA7B68002283F82824FB7A8A
:10205C0018461037BD4680BD80B584B000AF78609F
:10206C000B46FB700023FB6097F90330002B08DA5A
:10207C00FB7803F07F035B0128337A681344FB6021
:10208C0008E0FB7803F07F035B0103F50A737A68C1
:10209C001344FB60FB7803F07F03DAB2FB681A7021
:1020AC0097F90330DBB2DB09DBB21A46FB685A70D6
:1020BC007B6893F82834012B01D102230EE07B6856
:1020CC00012283F828247B681B68F968184602F003
:1020DC00EBFC7B68002283F8282400231846103779
:1020EC00BD4680BD80B586B000AFF8607A603B60BD
:1020FC000B46FB7200237B61FB7A03F07F035B01D1
:10210C0003F50A73FA6813447B617B697A685A6138
:10211C007B693A689A617B690022DA617B690022EB
:10212C005A70FB7A03F07F03DAB27B691A70FB7A80
:10213C0003F07F03002B06D1FB681B6879691846F6
:10214C0002F03AFE05E0FB681B687969184602F05C
:10215C0033FE002318461837BD4680BD80B483B0CB
:10216C0000AF78600B46FB70FB7803F00F037A68C6
:10217C0012335B01134404331B689BB218460C37B3
:10218C00BD4680BC704780B586B000AFF8607A6001
:10219C003B600B46FB7200237B61FB7A03F07F03F1
:1021AC005B012833FA6813447B617B697A685A6156
:1021BC007B693A689A617B690022DA617B6901224A
:1021CC005A70FB7A03F07F03DAB27B691A70FB7AE0
:1021DC0003F07F03002B06D1FB681B687969184656
:1021EC0002F0EAFD05E0FB681B687969184602F00D
:1021FC00E3FD002318461837BD4680BD80B584B07A
:10220C0000AF78600B46FB700023FB6097F903303E
:10221C00002B08DAFB7803F07F035B0128337A6824
:10222C001344FB6006E0FB785B0103F50A737A68E4
:10223C001344FB60FB6801229A70FB7803F07F0368
:10224C00DAB2FB681A7097F90330DBB2DB09DBB248
:10225C001A46FB685A707B6893F82834012B01D11D
:10226C0002231CE07B68012283F828247B681B680E
:10227C00F968184603F022F8FB7803F07F03002B73
:10228C0008D17B681A687B6803F22C431946104608
:10229C0003F036F97B68002283F8282400231846C3
:1022AC001037BD4680BD80B584B000AF78600B465A
:1022BC00FB700023FB6097F90330002B08DAFB78E6
:1022CC0003F07F035B0128337A681344FB6006E05C
:1022DC00FB785B0103F50A737A681344FB60FB68B7
:1022EC0000229A70FB7803F07F03DAB2FB681A7055
:1022FC0097F90330DBB2DB09DBB21A46FB685A7084
:10230C007B6893F82834012B01D102230EE07B6803
:10231C00012283F828247B681B68F968184603F0AF
:10232C002DF87B68002283F82824002318461037E8
:10233C00BD4680BD90B589B000AF78600023BB610D
:10234C000023FB830023FB750023FB810023BB814F
:10235C0008E3FB899BB2DBB203F00F03FB75FB7D3B
:10236C00002B40F02A81FB899BB203F01003002B59
:10237C004DD17B681A687B681B681B889BB223F461
:10238C00E14323F070039BB213807B682833BB615D
:10239C007B681B68B3F850309BB21A46BB691B783C
:1023AC00DB00134402335B007A681268134403F5B4
:1023BC0080631B689BB2C3F30902BB69DA61BB691A
:1023CC005A69BB69DB691A44BB695A610021786898
:1023DC0004F040FC7B6893F82430DBB2002B00F057
:1023EC00C182BB699B69002B40F0BC827B681B6877
:1023FC007A6892F82420D2B262F07F02D2B292B202
:10240C00A3F84C207B68002283F82420AAE27B6886
:10241C0003F50A73BB617B681B681B889BB2BB818D
:10242C00BB899BB203F40063002B31D07B681B6823
:10243C00B3F850309BB21A46BB691B78DB001344CF
:10244C0006335B007A681268134403F580631B68DB
:10245C009BB2C3F30902BB69DA617B6818687B68BD
:10246C0003F22C41BB699A88BB69DB699BB203F010
:10247C0098F87B681A687B681B681B8899B240F6D1
:10248C008F730B409BB21380786804F0B9FB69E240
:10249C00BB899BB21BB2002B80F264827B681A68EA
:1024AC007B681B681B8899B240F68F730B409BB2FC
:1024BC0013807B681B68B3F850309BB21A46BB691B
:1024CC001B78DB00134406335B007A6812681344F4
:1024DC0003F580631B689BB2C3F30902BB69DA6125
:1024EC00BB69DB69002B11D07B681868BB69596923
:1024FC00BB699A88BB69DB699BB203F052F8BB6974
:10250C005A69BB69DB691A44BB695A610021786856
:10251C0004F088FB7B681B68B3F850309BB2063321
:10252C005B007A681268134403F580633B61BB69F6
:10253C001B693E2B18D9BB691B695B09BB83BB6943
:10254C001B6903F01F03002B02D1BB8B013BBB8328
:10255C00BB8B9B029BB26FEA43436FEA53439BB224
:10256C001A463B691A6012E0BB691B695B08BB83A6
:10257C00BB691B6903F00103002B02D0BB8B013339
:10258C00BB83BB8B9B029BB21A463B691A607B6870
:10259C001B681B889BB223F4804323F070039CB20E
:1025AC0084F480539CB284F400539CB27B681A6808
:1025BC00984B23439BB21380D4E17B681B681A466B
:1025CC00FB7D9B0013441B889BB2BB81BB899BB2D8
:1025DC001BB2002B80F2D0807B681B681A46FB7DF7
:1025EC009B001A447B681B681946FB7D9B000B44BF
:1025FC001B8899B240F68F730B409BB21380FB7D06
:10260C005B0103F50A737A681344BB61BB699B7A5F
:10261C00002B22D17B681B68B3F850309BB21A4652
:10262C00BB691B78DB00134406335B007A681268C5
:10263C00134403F580631B689BB2C3F30903FB834C
:10264C00FB8B002B73D07B681868BB695969BB691D
:10265C009A88FB8B02F0A5FF69E07B681B681A4621
:10266C00BB691B789B0013441B889BB203F480430B
:10267C00002B22D07B681B68B3F850309BB21A46F3
:10268C00BB691B78DB00134402335B007A68126869
:10269C00134403F580631B689BB2C3F30903FB83EC
:1026AC00FB8B002B2BD07B681868BB695969BB6905
:1026BC00DA88FB8B02F075FF21E07B681B68B3F8AE
:1026CC0050309BB21A46BB691B78DB0013440633AF
:1026DC005B007A681268134403F580631B689BB235
:1026EC00C3F30903FB83FB8B002B08D07B681868B2
:1026FC00BB695969BB691A89FB8B02F052FF7B6875
:10270C001B681A46BB691B789B001A447B681B68C4
:10271C001946BB691B789B000B441B8899B240F689
:10272C000F730B4099B23C4B0B439BB21380BB69AC
:10273C00DA69FB8B1A44BB69DA61BB695A69FB8B9A
:10274C001A44BB695A61BB699B69002B04D0FA8B94
:10275C00BB691B699A4206D2BB691B78194678681B
:10276C0004F060FA08E0BB691978BB695A69BB6967
:10277C009B697868FFF7B6FCBB899BB203F08003BA
:10278C00002B00F0EF80FB7D5B0128337A6813444B
:10279C00BB617B681B681A46FB7D9B001A447B68F7
:1027AC001B681946FB7D9B000B441B889BB223F4D2
:1027BC00E14323F070039BB21380BB699B7A002B1F
:1027CC002CD17B681B68B3F850309BB21A46BB699E
:1027DC001B78DB00134402335B007A6812681344E5
:1027EC0003F580631B689BB2C3F30902BB69DA6112
:1027FC00BB69DB69002B00F083807B681868BB69C0
:10280C005969BB699A88BB69DB699BB202F083FE8C
:10281C0076E000BF8080FFFFC080FFFF7B681B68F5
:10282C001A46BB691B789B0013441B889BB203F0B0
:10283C004003002B26D07B681B68B3F850309BB24A
:10284C001A46BB691B78DB00134402335B007A68C1
:10285C001268134403F580631B689BB2C3F309022F
:10286C00BB69DA61BB69DB69002B31D07B68186806
:10287C00BB695969BB69DA88BB69DB699BB202F039
:10288C004AFE25E07B681B68B3F850309BB21A46B1
:10289C00BB691B78DB00134406335B007A68126853
:1028AC00134403F580631B689BB2C3F30902BB6935
:1028BC00DA61BB69DB69002B0AD07B681868BB69DD
:1028CC005969BB691A89BB69DB699BB202F023FEAB
:1028DC007B681B681A46BB691B789B001A447B6893
:1028EC001B681946BB691B789B000B441B8899B26B
:1028FC0040F60F730B4099B2224B0B439BB21380E3
:10290C007B681B68B3F850309BB21A46BB691B78C6
:10291C00DB00134402335B007A681268134403F53E
:10292C0080631B689BB2C3F30902BB69DA61BB69A4
:10293C005A69BB69DB691A44BB695A61BB699B69FB
:10294C00002B06D1BB691B781946786804F082F914
:10295C0008E0BB691978BB695A69BB699B697868DF
:10296C00FFF711FC7B681B68B3F844309BB21A4626
:10297C00FA811BB2002BFFF6ECAC0023184624376F
:10298C00BD4690BD80C0FFFF80B487B000AFF8603B
:10299C007B600B467B8113463B8100237B617B89EB
:1029AC0003F08003002B08D07B8903F07F035B01CD
:1029BC002833FA6813447B6106E07B895B0103F5DD
:1029CC000A73FA6813447B613B89002B07D17B693E
:1029DC0000229A727B689AB27B699A800BE07B69C1
:1029EC0001229A727B689AB27B69DA807B681B0C35
:1029FC009AB27B691A81002318461C37BD4680BCED
:102A0C007047000080B586B000AF786000233B6152
:102A1C007B681B6803F00103002B00F08780924B4E
:102A2C005B6803F00C03042B0CD08F4B5B6803F03A
:102A3C000C03082B12D18C4B5B6803F48033B3F579
:102A4C00803F0BD1884B1B6803F40033002B6CD0F8
:102A5C007B685B68002B68D101232DE27B685B6887
:102A6C00B3F5803F06D1804A7F4B1B6843F480331B
:102A7C0013602EE07B685B68002B0CD17A4A7A4B92
:102A8C001B6823F480331360774A774B1B6823F45D
:102A9C00802313601DE07B685B68B3F5A02F0CD11D
:102AAC00714A714B1B6843F4802313606E4A6E4B62
:102ABC001B6843F4803313600BE06B4A6A4B1B6852
:102ACC0023F480331360684A674B1B6823F480231C
:102ADC0013607B685B68002B13D0FEF743FB3861F7
:102AEC0008E0FEF73FFB02463B69D31A642B01D981
:102AFC000323E1E15C4B1B6803F40033002BF0D0A3
:102B0C0014E0FEF72FFB386108E0FEF72BFB0246C2
:102B1C003B69D31A642B01D90323CDE1524B1B68BB
:102B2C0003F40033002BF0D100E000BF7B681B687E
:102B3C0003F00203002B63D04B4B5B6803F00C03D8
:102B4C00002B0BD0484B5B6803F00C03082B1CD1FB
:102B5C00454B5B6803F48033002B16D1424B1B684A
:102B6C0003F00203002B05D07B681B69012B01D0FD
:102B7C000123A1E13C493C4B1B6823F0F8027B6824
:102B8C005B69DB0013430B603AE07B681B69002B2D
:102B9C0020D0364B01221A60FEF7E4FA386108E0C7
:102BAC00FEF7E0FA02463B69D31A022B01D9032344
:102BBC0082E12D4B1B6803F00203002BF0D02A4955
:102BCC00294B1B6823F0F8027B685B69DB0013431D
:102BDC000B6015E0254B00221A60FEF7C3FA386132
:102BEC0008E0FEF7BFFA02463B69D31A022B01D963
:102BFC00032361E11C4B1B6803F00203002BF0D193
:102C0C007B681B6803F00803002B39D07B689B6939
:102C1C00002B19D0164B01221A60FEF7A3FA38616B
:102C2C0008E0FEF79FFA02463B69D31A022B01D942
:102C3C00032341E10C4B5B6A03F00203002BF0D041
:102C4C00012000F0E3FA1BE0094B00221A60FEF7AA
:102C5C0089FA38610EE0FEF785FA02463B69D31A11
:102C6C00022B07D9032327E1001002400000424247
:102C7C0080044242924B5B6A03F00203002BEAD1C0
:102C8C007B681B6803F00403002B00F0A680002374
:102C9C00FB758B4BDB6903F08053002B0DD1884AFD
:102CAC00874BDB6943F08053D361854BDB6903F0C1
:102CBC008053FB60FB680123FB75824B1B6803F49C
:102CCC008073002B18D17F4A7E4B1B6843F48073B2
:102CDC001360FEF747FA386108E0FEF743FA024644
:102CEC003B69D31A642B01D90323E5E0754B1B68B0
:102CFC0003F48073002BF0D07B68DB68012B06D1CA
:102D0C006F4A6F4B1B6A43F0010313622DE07B6823
:102D1C00DB68002B0CD16A4A694B1B6A23F0010358
:102D2C001362674A664B1B6A23F0040313621CE0B0
:102D3C007B68DB68052B0CD1614A614B1B6A43F045
:102D4C00040313625E4A5E4B1B6A43F00103136279
:102D5C000BE05B4A5A4B1B6A23F001031362584A7F
:102D6C00574B1B6A23F0040313627B68DB68002B50
:102D7C0015D0FEF7F7F938610AE0FEF7F3F90246D1
:102D8C003B69D31A41F28832934201D9032393E071
:102D9C004B4B1B6A03F00203002BEED014E0FEF742
:102DAC00E1F938610AE0FEF7DDF902463B69D31A16
:102DBC0041F28832934201D903237DE0404B1B6AD8
:102DCC0003F00203002BEED1FB7D012B05D13C4A15
:102DDC003B4BDB6923F08053D3617B68DB69002BB1
:102DEC0069D0374B5B6803F00C03082B61D07B6810
:102DFC00DB69022B46D1344B00221A60FEF7B2F984
:102E0C00386108E0FEF7AEF902463B69D31A022B93
:102E1C0001D9032350E02A4B1B6803F00073002BED
:102E2C00F0D17B681B6AB3F5803F08D12449244B51
:102E3C005B6823F400327B689B6813434B6020482B
:102E4C001F4B5B6823F474127B68196A7B685B6A9E
:102E5C000B43134343601C4B01221A60FEF782F9AB
:102E6C00386108E0FEF77EF902463B69D31A022B63
:102E7C0001D9032320E0124B1B6803F00073002BD5
:102E8C00F0D018E0104B00221A60FEF76BF9386195
:102E9C0008E0FEF767F902463B69D31A022B01D909
:102EAC00032309E0064B1B6803F00073002BF0D1E1
:102EBC0001E0012300E0002318461837BD4680BD11
:102ECC0000100240007000406000424280B584B0A7
:102EDC0000AF786039600023FB607E4B1B6803F009
:102EEC0007023B689A4210D27A497A4B1B6823F04E
:102EFC0007023B6813430B60764B1B6803F0070219
:102F0C003B689A4201D00123E0E07B681B6803F028
:102F1C000203002B20D07B681B6803F00403002BFA
:102F2C0005D06D4A6C4B5B6843F4E06353607B687F
:102F3C001B6803F00803002B05D0674A664B5B68DF
:102F4C0043F4605353606449634B5B6823F0F002B5
:102F5C007B689B6813434B607B681B6803F0010321
:102F6C00002B6AD07B685B68012B07D15A4B1B681E
:102F7C0003F40033002B15D10123A7E07B685B68B9
:102F8C00022B07D1544B1B6803F00073002B09D1A3
:102F9C0001239BE0504B1B6803F00203002B01D173
:102FAC00012393E04C494C4B5B6823F003027B6894
:102FBC005B6813434B60FEF7D5F8F8607B685B6881
:102FCC00012B12D10AE0FEF7CDF80246FB68D31AAA
:102FDC0041F28832934201D9032377E03E4B5B6880
:102FEC0003F00C03042BEED127E07B685B68022B0B
:102FFC001DD10AE0FEF7B6F80246FB68D31A41F27F
:10300C008832934201D9032360E0334B5B6803F0B1
:10301C000C03082BEED110E0FEF7A4F80246FB6877
:10302C00D31A41F28832934201D903234EE02A4B42
:10303C005B6803F00C03002BEED1264B1B6803F0EE
:10304C0007023B689A4210D92249224B1B6823F095
:10305C0007023B6813430B601E4B1B6803F007020F
:10306C003B689A4201D0012330E07B681B6803F077
:10307C000403002B08D01849174B5B6823F4E0625B
:10308C007B68DB6813434B607B681B6803F00803A9
:10309C00002B09D01049104B5B6823F460527B68FD
:1030AC001B69DB0013434B6000F01CF801460A4B14
:1030BC005B681B0903F00F03084AD35C21FA03F386
:1030CC00074A13600020FEF70BF800231846103750
:1030DC00BD4680BD0020024000100240E07B00088D
:1030EC008400002090B48AB000AF2A4B3C1D0FCB5B
:1030FC0084E80F00284B1B883B800023FB610023D6
:10310C00BB6100237B6200237B6100233B62234B6A
:10311C005B68FB61FB6903F00C03042B02D0082BEA
:10312C0003D02DE01E4B3B622DE0FB699B0C03F0A2
:10313C000F0307F12802134413F8243C7B61FB694D
:10314C0003F48033002B13D0144B5B685B0C03F03F
:10315C00010307F12802134413F8283CBB617B6977
:10316C000F4A02FB03F2BB69B2FBF3F37B6204E090
:10317C007B690C4A02FB03F37B627B6A3B6202E0D5
:10318C00074B3B6200BF3B6A18462837BD4690BCD4
:10319C00704700BF747B0008847B0008001002405D
:1031AC0000127A0000093D0080B400AF024B1B688E
:1031BC001846BD4680BC70478400002080B500AF27
:1031CC00FFF7F2FF0146054B5B681B0A03F0070390
:1031DC00034AD35C21FA03F3184680BD0010024069
:1031EC00F07B000880B500AFFFF7DEFF0146054B12
:1031FC005B68DB0A03F00703034AD35C21FA03F391
:10320C00184680BD00100240F07B000880B485B0E9
:10321C0000AF78600A4B1B680A4AA2FB03235B0AC7
:10322C007A6802FB03F3FB6000BFFB685A1EFA606E
:10323C00002BF9D100BF1437BD4680BC704700BFCE
:10324C0084000020D34D621080B586B000AF78604A
:10325C0000233B610023FB607B681B6803F00103C8
:10326C00002B7DD00023FB754F4BDB6903F08053A3
:10327C00002B0DD14C4A4C4BDB6943F08053D3618E
:10328C00494BDB6903F08053BB60BB680123FB75C2
:10329C00464B1B6803F48073002B18D1434A434BF5
:1032AC001B6843F480731360FDF75CFF386108E022
:1032BC00FDF758FF02463B69D31A642B01D903234F
:1032CC006DE03A4B1B6803F48073002BF0D0364B47
:1032DC001B6A03F44073FB60FB68002B2ED07B68E9
:1032EC005B6803F44072FB689A4227D02E4B1B6A32
:1032FC0023F44073FB602E4B01221A602C4B0022EE
:10330C001A60294AFB681362FB6803F00103002B67
:10331C0014D0FDF727FF38610AE0FDF723FF0246C2
:10332C003B69D31A41F28832934201D9032336E028
:10333C001D4B1B6A03F00203002BEED01A491A4BEB
:10334C001B6A23F440727B685B6813430B62FB7D42
:10335C00012B05D1144A144BDB6923F08053D36144
:10336C007B681B6803F00203002B08D00E490E4B40
:10337C005B6823F440427B689B6813434B607B681B
:10338C001B6803F01003002B08D00749064B5B6841
:10339C0023F480027B68DB6813434B6000231846E0
:1033AC001837BD4680BD00BF0010024000700040C1
:1033BC004004424280B582B000AF78607B68002B3D
:1033CC0001D101231DE07B6893F83D30DBB2002B6B
:1033DC0006D17B68002283F83C207868FDF74AFC14
:1033EC007B68022283F83D207B681A687B68043373
:1033FC001946104600F0F8F87B68012283F83D204E
:10340C00002318460837BD4680BD000080B582B049
:10341C0000AF786039607B681B68012239681846F8
:10342C0000F0E8FA7B681B680B4A934207D17B6873
:10343C001B687A681268526C42F400425A647B68CA
:10344C001B687A681268126842F001021A60002345
:10345C0018460837BD4680BD002C014080B584B0AD
:10346C0000AFF860B9607A60FB6893F83C30012BD0
:10347C0001D10223B4E0FB68012283F83C20FB68F5
:10348C00022283F83D207B680C2B00F29F8001A266
:10349C0052F823F0D5340008D9350008D935000886
:1034AC00D935000815350008D9350008D93500087C
:1034BC00D935000857350008D9350008D93500082A
:1034CC00D935000897350008FB681B68B9681846A1
:1034DC0000F0F0F8FB681B68FA681268926942F019
:1034EC0008029A61FB681B68FA681268926922F0FC
:1034FC0004029A61FB681B68FA6812689169BA68E1
:10350C0012690A439A6162E0FB681B68B968184645
:10351C0000F03CF9FB681B68FA681268926942F487
:10352C0000629A61FB681B68FA681268926922F45F
:10353C0080629A61FB681B68FA6812689169BA68C4
:10354C00126912020A439A6141E0FB681B68B96870
:10355C00184600F08BF9FB681B68FA681268D26990
:10356C0042F00802DA61FB681B68FA681268D269DB
:10357C0022F00402DA61FB681B68FA681268D169F0
:10358C00BA6812690A43DA6121E0FB681B68B96802
:10359C00184600F0DBF9FB681B68FA681268D26900
:1035AC0042F40062DA61FB681B68FA681268D2693F
:1035BC0022F48062DA61FB681B68FA681268D169D0
:1035CC00BA68126912020A43DA6100E000BFFB68B4
:1035DC00012283F83D20FB68002283F83C20002365
:1035EC0018461037BD4680BD80B485B000AF7860FA
:1035FC0039600023FB607B681B68FB607B682A4A90
:10360C0093420BD07B68B3F1804F07D07B68274A7D
:10361C00934203D07B68264A934208D1FB6823F07F
:10362C007003FB603B685B68FA681343FB607B6864
:10363C001D4A93420BD07B68B3F1804F07D07B6857
:10364C001A4A934203D07B68194A934208D1FB680B
:10365C0023F44073FB603B68DB68FA681343FB6040
:10366C00FB6823F08003FB603B685B69FA681343DB
:10367C00FB607B68FA681A603B689A687B68DA6260
:10368C003B681A687B689A627B68074A934203D14D
:10369C003B681A697B681A637B6801225A6100BF18
:1036AC001437BD4680BC7047002C0140000400401C
:1036BC000008004080B487B000AF78603960002308
:1036CC00FB6000237B6100233B617B681B6A23F05A
:1036DC0001027B681A627B681B6A7B617B685B6892
:1036EC003B617B689B69FB60FB6823F07003FB60AC
:1036FC00FB6823F00303FB603B681B68FA68134309
:10370C00FB607B6923F002037B613B689B687A69F1
:10371C0013437B617B681C4A93420CD17B6923F079
:10372C0008037B613B68DB687A6913437B617B69C7
:10373C0023F004037B617B68134A934211D13B69EC
:10374C0023F480733B613B6923F400733B613B685A
:10375C005B693A6913433B613B689B693A69134364
:10376C003B617B683A695A607B68FA689A613B688E
:10377C005A687B685A637B687A691A6200BF1C3787
:10378C00BD4680BC704700BF002C014080B487B0A0
:10379C0000AF786039600023FB6000237B6100235D
:1037AC003B617B681B6A23F010027B681A627B68A2
:1037BC001B6A7B617B685B683B617B689B69FB6018
:1037CC00FB6823F4E043FB60FB6823F44073FB606D
:1037DC003B681B681B02FA681343FB607B6923F090
:1037EC0020037B613B689B681B017A6913437B61F7
:1037FC007B681D4A93420DD17B6923F080037B616A
:10380C003B68DB681B017A6913437B617B6923F09E
:10381C0040037B617B68144A934213D13B6923F4C8
:10382C0080633B613B6923F400633B613B685B69EC
:10383C009B003A6913433B613B689B699B003A6967
:10384C0013433B617B683A695A607B68FA689A61FA
:10385C003B685A687B689A637B687A691A6200BF16
:10386C001C37BD4680BC7047002C014080B487B02B
:10387C0000AF786039600023FB6000237B6100237C
:10388C003B617B681B6A23F480727B681A627B68DD
:10389C001B6A7B617B685B683B617B68DB69FB60F7
:1038AC00FB6823F07003FB60FB6823F00303FB60F1
:1038BC003B681B68FA681343FB607B6923F4007355
:1038CC007B613B689B681B027A6913437B617B6855
:1038DC001D4A93420DD17B6923F400637B613B68E5
:1038EC00DB681B027A6913437B617B6923F4806379
:1038FC007B617B68144A934213D13B6923F4805358
:10390C003B613B6923F400533B613B685B691B01E2
:10391C003A6913433B613B689B691B013A6913434A
:10392C003B617B683A695A607B68FA68DA613B688C
:10393C005A687B68DA637B687A691A6200BF1C3745
:10394C00BD4680BC704700BF002C014080B487B0DE
:10395C0000AF7860396000233B610023FB600023DB
:10396C007B617B681B6A23F480527B681A627B68DC
:10397C001B6AFB607B685B687B617B68DB693B6116
:10398C003B6923F4E0433B613B6923F440733B61A7
:10399C003B681B681B023A6913433B61FB6823F4C9
:1039AC000053FB603B689B681B03FA681343FB6086
:1039BC007B680F4A934209D17B6923F480437B6176
:1039CC003B685B699B017A6913437B617B687A690D
:1039DC005A607B683A69DA613B685A687B681A649A
:1039EC007B68FA681A6200BF1C37BD4680BC704702
:1039FC00002C014080B487B000AFF860B9607A60E9
:103A0C0000237B610122BB6802FA03F37B61FB6834
:103A1C001A6A7B69DB431A40FB681A62FB681A6AF4
:103A2C007968BB6801FA03F31A43FB681A6200BF9A
:103A3C001C37BD4680BC704780B483B000AF786043
:103A4C0039607B6893F83C30012B01D1022332E0C2
:103A5C007B68012283F83C207B68022283F83D209E
:103A6C007B681B687A681268526822F070025A6090
:103A7C007B681B687A68126851683A6812680A4356
:103A8C005A607B681B687A681268926822F0800220
:103A9C009A607B681B687A68126891683A68526809
:103AAC000A439A607B68012283F83D207B680022E0
:103ABC0083F83C20002318460C37BD4680BC704769
:103ACC0080B582B000AF78607B68002B01D10123F8
:103ADC003FE07B6893F83930DBB2002B06D17B6872
:103AEC00002283F838207868FDF76AF97B68242275
:103AFC0083F839207B681B687A681268D26822F4D4
:103B0C000052DA60786800F07FFB7B681B687A688B
:103B1C001268126922F490421A617B681B687A68F9
:103B2C001268526922F02A025A617B681B687A6813
:103B3C001268D26842F40052DA607B680022DA63C1
:103B4C007B68202283F839207B68202283F83A2076
:103B5C00002318460837BD4680BD000080B586B0EE
:103B6C0000AFF860B9601346FB80FB6893F83A30FD
:103B7C00DBB2202B66D1BB68002B02D0FB88002B5C
:103B8C0001D101235FE0FB6893F83830012B01D1A0
:103B9C00022358E0FB68012283F83820BA68FB68DE
:103BAC009A62FB68FA889A85FB680022DA63FB68E4
:103BBC00222283F83A20FB685B6B254A9A62FB68E9
:103BCC005B6B244ADA62FB685B6B234A1A63FB6803
:103BDC005B6B00225A6307F108037B61FB68586B2F
:103BEC00FB681B68043319467B691A68FB88FDF770
:103BFC0025FC00233B61FB681B681B683B61FB6871
:103C0C001B685B683B613B69FB68002283F83820CA
:103C1C00FB681B68FA681268D26842F48072DA603A
:103C2C00FB681B68FA681268526942F001025A611B
:103C3C00FB681B68FA681268526942F040025A61CC
:103C4C00002300E0022318461837BD4680BD00BF94
:103C5C00973E0008FF3E00081B3F000880B588B067
:103C6C0000AF78607B681B681B68FB617B681B6816
:103C7C00DB68BB617B681B685B697B6100233B6114
:103C8C000023FB60FB6903F00F033B613B69002BD6
:103C9C000DD1FB6903F02003002B08D0BB6903F0A6
:103CAC002003002B03D0786800F02DFACCE03B69A0
:103CBC00002B00F0AB807B6903F00103002B05D1D6
:103CCC00BB6903F49073002B00F0A080FB6903F038
:103CDC000103002B0AD0BB6903F48073002B05D0C1
:103CEC007B68DB6B43F001027B68DA63FB6903F0F2
:103CFC000403002B0AD07B6903F00103002B05D0D1
:103D0C007B68DB6B43F002027B68DA63FB6903F0D0
:103D1C000203002B0AD07B6903F00103002B05D0B2
:103D2C007B68DB6B43F004027B68DA63FB6903F0AE
:103D3C000803002B0AD07B6903F00103002B05D08C
:103D4C007B68DB6B43F008027B68DA637B68DB6BB8
:103D5C00002B78D0FB6903F02003002B07D0BB6944
:103D6C0003F02003002B02D0786800F0CCF97B68BC
:103D7C001B685B6903F04003002B14BF0123002375
:103D8C00DBB2FB607B68DB6B03F00803002B02D11A
:103D9C00FB68002B31D0786800F018F97B681B6841
:103DAC005B6903F04003002B23D07B681B687A68A7
:103DBC001268526922F040025A617B685B6B002BDF
:103DCC0013D07B685B6B224A5A637B685B6B18462B
:103DDC00FDF794FB0346002B16D07B685B6B5B6B8B
:103DEC007A68526B104698470EE0786800F044F8F9
:103DFC000AE0786800F040F806E0786800F03CF8DB
:103E0C007B680022DA631EE000BF1CE0FB6903F054
:103E1C008003002B08D0BB6903F08003002B03D078
:103E2C00786800F004F90FE0FB6903F04003002B05
:103E3C000AD0BB6903F04003002B05D0786800F072
:103E4C004AF900BF00E000BF2037BD4680BD00BF6F
:103E5C001340000880B483B000AF786000BF0C370B
:103E6C00BD4680BC704780B483B000AF786000BFA3
:103E7C000C37BD4680BC704780B483B000AF78600F
:103E8C0000BF0C37BD4680BC704780B584B000AF16
:103E9C0078607B685B6AFB607B681B681B6803F05F
:103EAC002003002B1ED1FB680022DA85FB681B68FF
:103EBC00FA681268D26822F48072DA60FB681B68B8
:103ECC00FA681268526922F001025A61FB681B6899
:103EDC00FA681268526922F040025A61FB6820228B
:103EEC0083F83A20F868FCF72BF900BF1037BD4671
:103EFC0080BD80B584B000AF78607B685B6AFB6086
:103F0C00F868FFF7B0FF00BF1037BD4680BD80B525
:103F1C0084B000AF78600023FB607B685B6ABB6099
:103F2C00BB681B685B6903F08003002B14BF012383
:103F3C000023DBB2FB60BB6893F83930DBB2212B7A
:103F4C0008D1FB68002B05D0BB680022DA84B86866
:103F5C0000F027F8BB681B685B6903F04003002B7B
:103F6C0014BF01230023DBB2FB60BB6893F83A302B
:103F7C00DBB2222B08D1FB68002B05D0BB680022DA
:103F8C00DA85B86800F022F8BB68DB6B43F01002EE
:103F9C00BB68DA63B868FFF76FFF00BF1037BD4628
:103FAC0080BD80B483B000AF78607B681B687A6892
:103FBC001268D26822F0C002DA607B68202283F893
:103FCC00392000BF0C37BD4680BC704780B483B02D
:103FDC0000AF78607B681B687A681268D26822F43C
:103FEC009072DA607B681B687A681268526922F0FA
:103FFC0001025A617B68202283F83A2000BF0C37FB
:10400C00BD4680BC704780B584B000AF78607B68DB
:10401C005B6AFB60FB680022DA85FB680022DA84AD
:10402C00F868FFF729FF00BF1037BD4680BD80B48C
:10403C0085B000AF78607B6893F83930DBB2212B08
:10404C0043D17B689B68B3F5805F19D17B681B6A91
:10405C00FB607B681B68FA681288C2F308025A601E
:10406C007B681B69002B05D17B681B6A9A1C7B68DB
:10407C001A620EE07B681B6A5A1C7B681A6208E0A5
:10408C007B681A687B681B6A581C796808621B7805
:10409C0053607B68DB8C9BB2013B9BB27A68194600
:1040AC00D184002B0FD17B681B687A681268D268A8
:1040BC0022F08002DA607B681B687A681268D2682A
:1040CC0042F04002DA60002300E002231846143765
:1040DC00BD4680BC704780B582B000AF78607B680D
:1040EC001B687A681268D26822F04002DA607B683A
:1040FC00202283F839207868FFF7ACFE002318469D
:10410C000837BD4680BD80B584B000AF78607B6851
:10411C0093F83A30DBB2222B71D17B689B68B3F5F4
:10412C00805F23D17B689B6AFB607B681B69002BDB
:10413C000ED17B681B685B689BB2C3F308039AB211
:10414C00FB681A807B689B6A9A1C7B689A6229E0E0
:10415C007B681B685B689BB2DBB29AB2FB681A8007
:10416C007B689B6A5A1C7B689A621BE07B681B69A4
:10417C00002B0AD17B689B6A591C7A6891627A6819
:10418C0012685268D2B21A700CE07B689B6A591C98
:10419C007A6891627A6812685268D2B202F07F0231
:1041AC00D2B21A707B68DB8D9BB2013B9BB27A68F2
:1041BC001946D185002B20D17B681B687A68126860
:1041CC00D26822F02002DA607B681B687A68126879
:1041DC00D26822F48072DA607B681B687A68126895
:1041EC00526922F001025A617B68202283F83A203E
:1041FC007868FBF7A5FF002302E0002300E0022310
:10420C0018461037BD4680BDF0B585B000AF78605C
:10421C000023FB607B681B687A681268126922F4C1
:10422C0040517A68D2680A431A617B689A687B6845
:10423C001B691A437B685B691343FA681343FB6081
:10424C007B681A687B681B68DB6823F4B05323F027
:10425C000C03F9680B43D3607B681B687A6812689F
:10426C00526922F440717A6892690A435A617B68F8
:10427C001B686F4A93426BD17B681C68FEF7B2FFD8
:10428C00024613469B0013449A001A447B685B68F1
:10429C009B00B2FBF3F3674AA2FB03235B091D01EE
:1042AC00FEF7A0FF024613469B0013449A001A44E3
:1042BC007B685B689B00B2FBF3F6FEF793FF02464C
:1042CC0013469B0013449A001A447B685B689B005E
:1042DC00B2FBF3F3574AA2FB03235B09642202FBF4
:1042EC0003F3F31A1B013233524AA2FB03235B097B
:1042FC0003F0F0031D44FEF775FF024613469B00C6
:10430C0013449A001A447B685B689B00B2FBF3F67B
:10431C00FEF768FF024613469B0013449A001A44AA
:10432C007B685B689B00B2FBF3F3424AA2FB03235E
:10433C005B09642202FB03F3F31A1B0132333D4A7F
:10434C00A2FB03235B0903F00F032B44A3606AE079
:10435C007B681C68FEF732FF024613469B00134431
:10436C009A001A447B685B689B00B2FBF3F3314AFA
:10437C00A2FB03235B091D01FEF720FF0246134637
:10438C009B0013449A001A447B685B689B00B2FB49
:10439C00F3F6FEF713FF024613469B0013449A00F4
:1043AC001A447B685B689B00B2FBF3F3214AA2FBC7
:1043BC0003235B09642202FB03F3F31A1B01323360
:1043CC001C4AA2FB03235B0903F0F0031D44FEF718
:1043DC00F5FE024613469B0013449A001A447B6870
:1043EC005B689B00B2FBF3F6FEF7E8FE0246134651
:1043FC009B0013449A001A447B685B689B00B2FBD9
:10440C00F3F30C4AA2FB03235B09642202FB03F3C4
:10441C00F31A1B013233074AA2FB03235B0903F097
:10442C000F032B44A36000BF1437BD46F0BD00BF83
:10443C00003801401F85EB5184B080B483B000AFCD
:10444C00786007F1140080E80E00002318460C3742
:10445C00BD4680BC04B0704780B485B000AF7860B6
:10446C000023FB604FF43F43FB607B68B3F84030A4
:10447C009AB2FB689BB213439AB27B68A3F84020B4
:10448C00002318461437BD4680BC704780B485B0F5
:10449C0000AF78600023FB604FF43D43FB607B680A
:1044AC00B3F840309AB2FB689BB2DB439BB213402B
:1044BC009AB27B68A3F84020002318461437BD46F7
:1044CC0080BC704780B483B000AF78600B46FB7043
:1044DC00002318460C37BD4680BC704784B080B5AD
:1044EC0082B000AF786007F1140080E80E007B68A2
:1044FC000122A3F840207B680022A3F840207B68AF
:10450C000022A3F844207B680022A3F8502078688E
:10451C00FFF7A2FF002318460837BD46BDE88040D0
:10452C0004B0704790B484B000AF786039603B68D9
:10453C00DB78032B5FD801A252F823F05945000811
:10454C00D745000885450008AB4500087A683B68EC
:10455C001B789B001A4479683B681B789B000B44C2
:10456C001B889BB223F4EC4323F070039BB243F4FF
:10457C0000739BB213803FE07A683B681B789B000A
:10458C001A4479683B681B789B000B441B889BB2D0
:10459C0023F4EC4323F070039BB213802CE07A6875
:1045AC003B681B789B001A4479683B681B789B001E
:1045BC000B441B889BB223F4EC4323F070039BB297
:1045CC0043F4C0639BB2138016E07A683B681B7897
:1045DC009B001A4479683B681B789B000B441B8832
:1045EC009BB223F4EC4323F070039BB243F480633F
:1045FC009BB2138000E000BF7A683B681B789B007D
:10460C001A4479683B681B789B000B441B8899B251
:10461C0040F60F730B4099B23B681B789BB20B436F
:10462C0099B2754B0B439BB213803B689B7A002B62
:10463C0040F0E8803B685B78002B4CD07B68B3F88B
:10464C0050309BB21A463B681B78DB0013445A006F
:10465C007B68134403F580631A463B689B885B08B0
:10466C009BB25B0013607A683B681B789B00134419
:10467C001B889BB203F04003002B13D07A683B6875
:10468C001B789B001A4479683B681B789B000B4491
:10469C001B8899B240F60F730B4099B2574B0B43E2
:1046AC009BB213807A683B681B789B0013441B8871
:1046BC009BB223F4E04323F040039CB284F020032C
:1046CC009CB27A683B681B789B001A444A4B234384
:1046DC009BB21380D9E17B68B3F850309BB21A4679
:1046EC003B681B78DB00134404335A007B6813448B
:1046FC0003F580631A463B689B885B089BB25B00A2
:10470C0013607B68B3F850309BB21A463B681B7839
:10471C00DB00134406335A007B68134403F58063B3
:10472C00BB603B681B693E2B18D93B681B695B0956
:10473C00FB813B681B6903F01F03002B02D1FB8933
:10474C00013BFB81FB899B029BB26FEA43436FEAFF
:10475C0053439BB21A46BB681A6012E03B681B6954
:10476C005B08FB813B681B6903F00103002B02D043
:10477C00FB890133FB81FB899B029BB21A46BB6808
:10478C001A607A683B681B789B0013441B889BB2A9
:10479C0003F48043002B13D07A683B681B789B0092
:1047AC001A4479683B681B789B000B441B8899B2B0
:1047BC0040F60F730B4099B2114B0B439BB2138015
:1047CC007A683B681B789B0013441B889BB223F4CC
:1047DC00804323F070039CB284F480539CB284F425
:1047EC0000539CB27A683B681B789B001A44024BBE
:1047FC0023439BB2138048E18080FFFFC080FFFF02
:10480C0080C0FFFF7A683B681B789B001A4479686C
:10481C003B681B789B000B441B8899B240F60F63D6
:10482C000B4099B29C4B0B439BB213807B68B3F843
:10483C0050309BB21A463B681B78DB0013445A007D
:10484C007B68134403F580631A463B68DB885B087E
:10485C009BB25B0013607B68B3F850309BB21A4676
:10486C003B681B78DB00134404335A007B68134409
:10487C0003F580631A463B681B895B089BB25B009F
:10488C0013603B685B78002B40F083807A683B6850
:10489C001B789B0013441B889BB203F48043002BB2
:1048AC0013D07A683B681B789B001A4479683B6884
:1048BC001B789B000B441B8899B240F60F730B407E
:1048CC0099B2764B0B439BB213807A683B681B788A
:1048DC009B0013441B889BB203F04003002B13D0A6
:1048EC007A683B681B789B001A4479683B681B7894
:1048FC009B000B441B8899B240F60F730B4099B286
:10490C00674B0B439BB213807A683B681B789B0008
:10491C001A4479683B681B789B000B441B8899B23E
:10492C0040F60F730B4099B25D4B0B439BB2138057
:10493C007A683B681B789B0013441B889BB223F45A
:10494C00804323F070039CB284F480539CB284F4B3
:10495C0000539CB27A683B681B789B001A44514BFD
:10496C0023439BB213807A683B681B789B001344EB
:10497C001B889BB223F4E04323F040039CB27A687B
:10498C003B681B789B001A44464B23439BB2138015
:10499C007BE07A683B681B789B0013441B889BB2B6
:1049AC0003F48043002B13D07A683B681B789B0080
:1049BC001A4479683B681B789B000B441B8899B29E
:1049CC0040F60F730B4099B2344B0B439BB21380E0
:1049DC007A683B681B789B0013441B889BB203F0DE
:1049EC004003002B13D07A683B681B789B001A4459
:1049FC0079683B681B789B000B441B8899B240F686
:104A0C000F730B4099B2264B0B439BB213807A6801
:104A1C003B681B789B001A4479683B681B789B00A9
:104A2C000B441B8899B240F60F730B4099B21B4B89
:104A3C000B439BB213807A683B681B789B00134432
:104A4C001B889BB223F4E04323F040039CB27A68AA
:104A5C003B681B789B001A44124B23439BB2138078
:104A6C007A683B681B789B0013441B889BB223F429
:104A7C00804323F070039CB27A683B681B789B00E0
:104A8C001A44084B23439BB213800023184610375B
:104A9C00BD4690BC704700BF8081FFFF80C0FFFF08
:104AAC00C080FFFF8080FFFF90B482B000AF7860C1
:104ABC0039603B689B7A002B6DD13B685B78002B8F
:104ACC0034D07A683B681B789B0013441B889BB2DC
:104ADC0003F04003002B13D07A683B681B789B00D3
:104AEC001A4479683B681B789B000B441B8899B26D
:104AFC0040F60F730B4099B2684B0B439BB213807B
:104B0C007A683B681B789B0013441B889BB223F488
:104B1C00E04323F040039CB27A683B681B789B000F
:104B2C001A445F4B23439BB2138039E17A683B688C
:104B3C001B789B0013441B889BB203F48043002B0F
:104B4C0013D07A683B681B789B001A4479683B68E1
:104B5C001B789B000B441B8899B240F60F730B40DB
:104B6C0099B2504B0B439BB213807A683B681B780D
:104B7C009B0013441B889BB223F4804323F07003E7
:104B8C009CB27A683B681B789B001A44444B2343C5
:104B9C009BB2138004E13B685B78002B40F084806F
:104BAC007A683B681B789B0013441B889BB203F408
:104BBC008043002B13D07A683B681B789B001A4407
:104BCC0079683B681B789B000B441B8899B240F6B4
:104BDC000F730B4099B2334B0B439BB213807A6823
:104BEC003B681B789B0013441B889BB203F040036B
:104BFC00002B13D07A683B681B789B001A447968A9
:104C0C003B681B789B000B441B8899B240F60F73D2
:104C1C000B4099B2214B0B439BB213807A683B68D3
:104C2C001B789B001A4479683B681B789B000B44EB
:104C3C001B8899B240F60F730B4099B2174B0B437C
:104C4C009BB213807A683B681B789B0013441B88CB
:104C5C009BB223F4804323F070039CB27A683B68C8
:104C6C001B789B001A440E4B23439BB213807A682B
:104C7C003B681B789B0013441B889BB223F4E043D6
:104C8C0023F040039CB27A683B681B789B001A4463
:104C9C00034B23439BB2138082E000BFC080FFFF15
:104CAC008080FFFF80C0FFFF7A683B681B789B0009
:104CBC0013441B889BB203F48043002B13D07A68F7
:104CCC003B681B789B001A4479683B681B789B00F7
:104CDC000B441B8899B240F60F730B4099B2334BBF
:104CEC000B439BB213807A683B681B789B00134480
:104CFC001B889BB203F04003002B13D07A683B68EF
:104D0C001B789B001A4479683B681B789B000B440A
:104D1C001B8899B240F60F730B4099B2244B0B438E
:104D2C009BB213807A683B681B789B001A447968A5
:104D3C003B681B789B000B441B8899B240F60F73A1
:104D4C000B4099B2194B0B439BB213807A683B68AA
:104D5C001B789B0013441B889BB223F4E04323F085
:104D6C0040039CB27A683B681B789B001A44114B39
:104D7C0023439BB213807A683B681B789B001344D7
:104D8C001B889BB223F4804323F070039CB27A6897
:104D9C003B681B789B001A44064B23439BB2138041
:104DAC00002318460837BD4690BC704780C0FFFFF3
:104DBC00C080FFFF8080FFFF90B58DB000AF7860A2
:104DCC0039600023FB853B689B69BB623B685B7861
:104DDC00012B40F049813B689A693B681B699A42F8
:104DEC0009D93B681B69BB623B689A69BB6AD21ADA
:104DFC003B689A6105E03B689B69BB623B6800229B
:104E0C009A613B689B7A002B1BD13B6859693B68C4
:104E1C009A88BB6A9BB2786800F07DFB7B68B3F81C
:104E2C0050309BB21A463B681B78DB0013440233AC
:104E3C005A007B68134403F580631A46BB6A1360FF
:104E4C00F6E07A683B681B789B0013441B889BB286
:104E5C0003F04003002B59D03B685B78002B3BD10F
:104E6C007B68B3F850309BB21A463B681B78DB006A
:104E7C00134406335A007B68134403F58063BB610B
:104E8C00BB6A3E2B16D9BB6A5B09FB84BB6A03F079
:104E9C001F03002B02D1FB8C013BFB84FB8C9B0280
:104EAC009BB26FEA43436FEA53439BB21A46BB690A
:104EBC001A6027E0BB6A5B08FB84BB6A03F0010342
:104ECC00002B02D0FB8C0133FB84FB8C9B029BB22E
:104EDC001A46BB691A6015E03B685B78012B11D14F
:104EEC007B68B3F850309BB21A463B681B78DB00EA
:104EFC00134402335A007B68134403F580631A464B
:104F0C00BB6A13603B681B89FB8558E03B685B7888
:104F1C00002B3BD17B68B3F850309BB21A463B68F0
:104F2C001B78DB00134402335A007B68134403F5EF
:104F3C0080637B61BB6A3E2B16D9BB6A5B09BB8461
:104F4C00BB6A03F01F03002B02D1BB8C013BBB845B
:104F5C00BB8C9B029BB26FEA43436FEA53439BB2F9
:104F6C001A467B691A6027E0BB6A5B08BB84BB6A84
:104F7C0003F00103002B02D0BB8C0133BB84BB8C30
:104F8C009B029BB21A467B691A6015E03B685B7802
:104F9C00012B11D17B68B3F850309BB21A463B6899
:104FAC001B78DB00134402335A007B68134403F56F
:104FBC0080631A46BB6A13603B68DB88FB853B68E1
:104FCC005969BB6A9BB2FA8D786800F0A4FA3B6809
:104FDC005B78002B14D17A683B681B789B001A44D1
:104FEC0079683B681B789B000B441B8899B240F690
:104FFC000F730B4099B2924B0B439BB2138017E08B
:10500C003B685B78012B13D17A683B681B789B005B
:10501C001A4479683B681B789B000B441B8899B237
:10502C0040F60F730B4099B2864B0B439BB2138027
:10503C007A683B681B789B0013441B889BB223F453
:10504C00E04323F040039CB284F010039CB284F044
:10505C0020039CB27A683B681B789B001A447A4BFD
:10506C0023439BB2138022E13B689A693B681B691E
:10507C009A4209D93B681B69BB623B689A69BB6A57
:10508C00D21A3B689A6105E03B689B69BB623B683E
:10509C0000229A613B689B7A002B3BD17B68B3F86A
:1050AC0050309BB21A463B681B78DB001344063326
:1050BC005A007B68134403F580633B61BB6A3E2B4B
:1050CC0016D9BB6A5B097B84BB6A03F01F03002BF8
:1050DC0002D17B8C013B7B847B8C9B029BB26FEA65
:1050EC0043436FEA53439BB21A463B691A60C3E0D1
:1050FC00BB6A5B087B84BB6A03F00103002B02D004
:10510C007B8C01337B847B8C9B029BB21A463B6964
:10511C001A60B1E03B685B78002B3BD17B68B3F83D
:10512C0050309BB21A463B681B78DB0013440233A9
:10513C005A007B68134403F58063FB60BB6A3E2B0B
:10514C0016D9BB6A5B093B84BB6A03F01F03002BB7
:10515C0002D13B8C013B3B843B8C9B029BB26FEAA4
:10516C0043436FEA53439BB21A46FB681A6027E02D
:10517C00BB6A5B083B84BB6A03F00103002B02D0C3
:10518C003B8C01333B843B8C9B029BB21A46FB68E5
:10519C001A6015E03B685B78012B11D17B68B3F882
:1051AC0050309BB21A463B681B78DB001344023329
:1051BC005A007B68134403F580631A46BB6A13607C
:1051CC003B685B78002B41D17B68B3F850309BB2C5
:1051DC001A463B681B78DB00134406335A007B6885
:1051EC00134403F58063BB60BB6A3E2B16D9BB6AC4
:1051FC005B09FB83BB6A03F01F03002B02D1FB8B03
:10520C00013BFB83FB8B9B029BB26FEA43436FEA30
:10521C0053439BB21A46BB681A602DE0BB6A5B080D
:10522C00FB83BB6A03F00103002B02D0FB8B013321
:10523C00FB83FB8B9B029BB21A46BB681A601BE07C
:10524C00C080FFFF80C0FFFF8080FFFF3B685B7862
:10525C00012B11D17B68B3F850309BB21A463B68D6
:10526C001B78DB00134402335A007B68134403F5AC
:10527C0080631A46BB6A13607A683B681B789B0094
:10528C0013441B889BB223F4804323F070039CB21D
:10529C0084F480539CB284F400539CB27A683B68CB
:1052AC001B789B001A44044B23439BB213800023AE
:1052BC0018463437BD4690BD8080FFFF90B482B055
:1052CC0000AF786039603B681B78002B18D17A6886
:1052DC003B681B789B0013441B889BB24BF6BF7436
:1052EC001C4084F4805484F010047A683B681B786A
:1052FC009B001A44A1B2204B0B439BB2138034E0A9
:10530C003B685B78002B18D07A683B681B789B0055
:10531C0013441B889BB223F4E04323F040039CB25C
:10532C0084F010039CB27A683B681B789B001A448B
:10533C00114B23439BB2138017E07A683B681B78B0
:10534C009B0013441B889BB223F4804323F070030F
:10535C009CB284F480539CB27A683B681B789B00A7
:10536C001A44054B23439BB213800023184608377D
:10537C00BD4690BC704700BF8080FFFF90B482B0E8
:10538C0000AF786039603B685B78002B3AD07A6864
:10539C003B681B789B0013441B889BB203F04003B3
:1053AC00002B13D07A683B681B789B001A447968F1
:1053BC003B681B789B000B441B8899B240F60F731B
:1053CC000B4099B22F4B0B439BB213807A683B680E
:1053DC001B789B0013441B889BB223F4E04323F0FF
:1053EC0040039CB284F010039CB284F020039CB266
:1053FC007A683B681B789B001A44234B23439BB26F
:10540C00138039E07A683B681B789B0013441B8837
:10541C009BB203F48043002B13D07A683B681B7853
:10542C009B001A4479683B681B789B000B441B88D3
:10543C0099B240F60F730B4099B2144B0B439BB2CD
:10544C0013807A683B681B789B0013441B889BB2C3
:10545C0023F4804323F070039CB284F480539CB2F9
:10546C0084F400539CB27A683B681B789B001A4406
:10547C00054B23439BB21380002318460837BD46C7
:10548C0090BC7047C080FFFF8080FFFF80C0FFFF93
:10549C0080B483B000AF78600B46FB70FB78002BB8
:1054AC0003D17B688022A3F84C20002318460C37CC
:1054BC00BD4680BC704780B483B000AF78600023D9
:1054CC0018460C37BD4680BC704780B483B000AF23
:1054DC007860002318460C37BD4680BC704780B4FA
:1054EC0085B000AF78600023FB607B68B3F8443074
:1054FC009BB2FB60FB6818461437BD4680BC7047F6
:10550C0080B483B000AF78603960002318460C3744
:10551C00BD4680BC704780B48BB000AFF860B960FA
:10552C0011461A460B46FB801346BB80BB880133E1
:10553C005B10FB6100237B620023BB6100237B615A
:10554C0000233B62FB885B001A46FB68134403F59F
:10555C0080633B62FB697B621BE0BB681B78BB61B1
:10556C00BB680133BB60BB681B781B021A46BB6966
:10557C0013437B613B6A9A1C3A627A6992B21A8035
:10558C003B6A02333B62BB680133BB607B6A013B05
:10559C007B627B6A002BE0D100BF2C37BD4680BC00
:1055AC00704780B489B000AFF860B96011461A46F4
:1055BC000B46FB801346BB80BB8801335B107B61C1
:1055CC000023FB610023BB61FB885B001A46FB6870
:1055DC00134403F58063BB617B69FB610EE0BB6820
:1055EC005A1CBA60BA69111DB961126892B21A805C
:1055FC00BB680133BB60FB69013BFB61FB69002BA2
:10560C00EDD100BF2437BD4680BC704780B584B057
:10561C0000AF78600B46FB700023FB737B681B7C30
:10562C00002B0ED14FF4007302228121786801F017
:10563C000FFC4FF4007302220121786801F008FC82
:10564C000BE0402302228121786801F001FC402309
:10565C0002220121786801F0FBFB0823032282213E
:10566C00786801F0F5FB4FF4077001F0B5FD0246C8
:10567C007B68C3F818227B68D3F81832002B02D150
:10568C000123FB7326E07B68D3F81832BB607B6880
:10569C00D3F81C321B689847BB680022C3F814224D
:1056AC00BB680022C3F818227B681B7C002B09D135
:1056BC00BB68D3F804224FF400730121786801F021
:1056CC003DFD07E0BB68D3F8042240230121786834
:1056DC0001F034FDFB7B18461037BD4680BD80B50C
:1056EC0084B000AF78600B46FB700023FB73812104
:1056FC00786801F0EBFB0121786801F0E7FB82216F
:10570C00786801F0E3FB7B68D3F81832002B0ED0DD
:10571C007B68D3F81C325B6898477B68D3F81832E7
:10572C00184601F065FD7B680022C3F81822FB7B4C
:10573C0018461037BD4680BD80B584B000AF786088
:10574C0039607B68D3F81832FB603B681B7803F038
:10575C006003002B3AD0202B00D043E03B68DB8861
:10576C00002B29D03B681B785BB2002B11DA7B68CD
:10577C00D3F81C329B683A685078F9683A68D2883A
:10578C009847F9683B68DB881A46786801F00EF890
:10579C0029E03B685A78FB6883F800223B68DB8879
:1057AC00DAB2FB6883F80122F9683B68DB881A4699
:1057BC00786801F029F816E07B68D3F81C329B68F6
:1057CC003A6850780022396898470CE03B685B785F
:1057DC000A2B01D00B2B05E001220549786800F05B
:1057EC00E5FF00BF00BF002318461037BD4680BD43
:1057FC007202002080B485B000AF78600B46FB705D
:10580C007B68D3F81832FB607B68D3F81832002B16
:10581C0005D0FB680022C3F81422002300E0022309
:10582C0018461437BD4680BC704780B584B000AFB5
:10583C0078600B46FB707B68D3F81832FB60FB7802
:10584C001946786801F0B4FC0246FB68C3F80C22D8
:10585C007B68D3F81832002B0DD07B68D3F81C3240
:10586C00DB68FA68D2F80402FA6802F50372114692
:10587C009847002300E0022318461037BD4680BD30
:10588C0080B584B000AF78607B68D3F81832FB60C9
:10589C007B68D3F81C32002B15D0FB6893F80032D0
:1058AC00FF2B10D07B68D3F81C329B68FA6892F8F7
:1058BC000002F968FA6892F8012292B29847FB68E4
:1058CC00FF2283F80022002318461037BD4680BD06
:1058DC0080B483B000AF78607B6843221A80034B9E
:1058EC0018460C37BD4680BC704700BF180100201D
:1058FC0080B483B000AF78607B6843221A80034B7E
:10590C0018460C37BD4680BC704700BFD400002041
:10591C0080B483B000AF78607B6843221A80034B5D
:10592C0018460C37BD4680BC704700BF5C01002098
:10593C0080B483B000AF78607B680A221A80034B76
:10594C0018460C37BD4680BC704700BF9000002045
:10595C0080B485B000AF786039600223FB733B687C
:10596C00002B05D07B683A68C3F81C220023FB731C
:10597C00FB7B18461437BD4680BC704780B487B09B
:10598C0000AFF860B9601346FB80FB68D3F818329F
:10599C007B617B69BA68C3F80822FA887B69C3F813
:1059AC001022002318461C37BD4680BC704780B4BB
:1059BC0085B000AF786039607B68D3F81832FB6033
:1059CC00FB683A68C3F80422002318461437BD4616
:1059DC0080BC704780B584B000AF78607B68D3F82A
:1059EC001832FB607B68D3F81832002B17D0FB6899
:1059FC00D3F81432002B10D1FB680122C3F8142207
:105A0C00FB68D3F80822FB68D3F810329BB28121D3
:105A1C00786801F059FB002302E0012300E0022327
:105A2C0018461037BD4680BD80B584B000AF786095
:105A3C007B68D3F81832FB607B68D3F81832002BE4
:105A4C0017D07B681B7C002B09D1FB68D3F8042290
:105A5C004FF400730121786801F070FB07E0FB68DC
:105A6C00D3F8042240230121786801F067FB00235E
:105A7C0000E0022318461037BD4680BD80B584B0C7
:105A8C0000AFF860B9601346FB71FB68002B01D1C5
:105A9C0002231AE0FB68D3F81432002B03D0FB6806
:105AAC000022C3F81422BB68002B03D0FB68BA6831
:105ABC00C3F81022FB68012283F8FC21FB68FA79F9
:105ACC001A70F86801F036F9002318461037BD46F5
